:1000000019C033C032C031C030C02FC02EC02DC087
:100010002CC02BC02AC0CAC028C027C026C025C0FB
:1000200024C023C022C0AEC1ADC1AEC1AFC1ACC1FE
:10003000AFC1B0C111241FBECFE5D4E0DEBFCDBF3C
:1000400010E0A0E6B0E0E4EAF4E002C005900D9212
:10005000A436B107D9F720E0A4E6B0E001C01D92B4
:10006000A936B207E1F702D11BC2CACF80E081D125
:1000700088EB7BD182E07DD187E49DE00197F1F7A9
:1000800000C0000086E075C1FF920F931F93CF93CD
:10009000DF93F82E092F162F80E06BD188EB65D106
:1000A00082E067D1CF2DD02FCE01810F911D8C0121
:1000B000C017D10729F0899158D182E05AD1F8CFE1
:1000C00086E0DF91CF911F910F91FF9052C1DF9297
:1000D000EF92FF920F931F93CF93DF937C01D62F64
:1000E00080E047D189EB41D182E043D1D12C6D2F03
:1000F00070E0EB0121970D2D10E00C171D074CF45B
:1001000083E037D10E0D1F1D32D1F8018083D394C7
:10011000F2CFCE0DDF1D2BD1888384E02AD186E07B
:10012000DF91CF911F910F91FF90EF90DF9021C150
:100130000F931F93CF93DF93CDB7DEB72B970FB6F7
:10014000F894DEBF0FBECDBF8C018091600090910E
:100150006100A091620089879A87AB8763E0CE0136
:10016000099692DF8FE39FE10197F1F700C000004D
:1001700068E0CE010196ABDF8B819C8198278927AF
:100180009827F801918380838D819E819827892704
:100190009827938382832B960FB6F894DEBF0FBE09
:1001A000CDBFDF91CF911F910F9108951F920F92B4
:1001B0000FB60F9211248F938CB1809368008091B9
:1001C0006800823469F020F4813459F4A89A09C097
:1001D000813621F0823629F4A99803C0A89801C07D
:1001E000A99A8F910F900FBE0F901F90189587B30B
:1001F0008E6087BB88B3817F88BB089584B383609A
:1002000084BB85B38C7F85BB08958FB5816A8FBD14
:100210008EB58A608EBD85E090E09BBD8ABD99BD9C
:1002200088BD089585B58A6685BD84E683BD089539
:10023000CF93DF93FC019B01CB0164E670E0FAD021
:10024000CB01CAE0D0E0BE01F5D0805D8083C9015A
:10025000BE01F0D0282FCB01BE01ECD0805D8183A0
:10026000205D22831382DF91CF910895CF93DF9396
:1002700000D000D01F92CDB7DEB7B9DFBFDF85E079
:10028000A89A2FEF30E792E0215030409040E1F7FC
:1002900000C00000A8982FEF30E792E021503040D6
:1002A0009040E1F700C00000815051F7AEDFBADFA7
:1002B00060EA76E881E090E036D020E036E940E080
:1002C00050E063E088E982D08FB780688FBFCEDED0
:1002D0008FE39FE10197F1F700C0000084E690E012
:1002E00027DF6091640070916500CE010196A0DF68
:1002F000CE01019660D08CE75AD060916600709173
:100300006700CE01019694DFCE01019654D08AE0B9
:100310004ED09FEF2BE63BE6915020403040E1F776
:1003200000C00000D4CFCF939B01AC01C1B1C3701A
:1003300060E074E284EF90E091D0CA01B9016051AD
:10034000710981099109CC0F22E030E002C0220F2F
:10035000331FCA95E2F7032E000C440B550B7ED0D9
:1003600020B984E086BFCF91089583B9089583B101
:100370000895482F50E04730510578F4FA01ED5EBA
:10038000FF4F099494EA0AC094E808C094EC06C0B0
:1003900094EB04C084E986BF07C094E096BF863022
:1003A00018F406B607FEFDCF81B1887F08955D9BE6
:1003B000FECF8CB90895CF93DF93EC018991882308
:1003C00011F0F5DFFBCFDF91CF910895CF93DF934D
:1003D000C82FD62F84E0220F331F441F551F8A9544
:1003E000D1F760E074E284EF90E038D02150310919
:1003F00059988BB19C2F9170892B8BB98AB19D2F05
:100400009470892B9C2F987F892B8AB990B58D2F5A
:100410008370880F6D2F6873692B682BC67040E25C
:10042000C49FC0011124862B80BD30BD29B9DF9146
:10043000CF910895AA1BBB1B51E107C0AA1FBB1F88
:10044000A617B70710F0A61BB70B881F991F5A9560
:10045000A9F780959095BC01CD010895A1E21A2ECF
:10046000AA1BBB1BFD010DC0AA1FBB1FEE1FFF1F58
:10047000A217B307E407F50720F0A21BB30BE40BA8
:10048000F50B661F771F881F991F1A9469F76095EF
:100490007095809590959B01AC01BD01CF010895A9
:0404A000F894FFCFFE
:0404A400030004004D
:00000001FF
