S013000056656E74696C6174696F6E2E7372656384
S113000019C028C027C026C025C024C023C022C0D0
S113001021C020C01FC01EC01DC01CC01BC01AC0F0
S113002019C018C017C022C121C122C123C120C1D7
S113003023C124C111241FBECFE5D4E0DEBFCDBF50
S113004020E0A0E6B0E001C01D92A436B207E1F7BB
S1130050CED059C1D5CF80E000D188EBFAD082E070
S1130060FCD087E49DE00197F1F700C0000086E032
S1130070F4C0FF920F931F93CF93DF93F82E092FB1
S1130080162F80E0EAD088EBE4D082E0E6D0CF2DD2
S1130090D02FCE01810F911D8C01C017D10729F0FB
S11300A08991D7D082E0D9D0F8CF86E0DF91CF9183
S11300B01F910F91FF90D1C0DF92EF92FF920F93A7
S11300C01F93CF93DF937C01D62F80E0C6D089EBBA
S11300D0C0D0D12C6D2F70E0EB0121978D2D90E0D5
S11300E08C179D0754F48701080F191FB4D0F80129
S11300F0808383E0B2D0D394F1CFCE0DDF1DABD09B
S1130100888384E0AAD086E0DF91CF911F910F917C
S1130110FF90EF90DF90A1C0AF92BF92CF92DF9299
S1130120EF92FF921F93CF93DF9300D01F92CDB72E
S1130130DEB77C01142FCDB6DEB683E089836A83F3
S11301404B83842F90E004962DB73EB7281B390BC0
S11301500FB6F8943EBF0FBE2DBF8DB79EB7019664
S11301605C0163E0CE01019684DF64E0610FC501A8
S1130170A3DFF50182819381982789279827F701C6
S113018093838283F5018481958198278927982711
S1130190F701918380830FB6F894DEBE0FBECDBE07
S11301A00F900F900F90DF91CF911F91FF90EF90E0
S11301B0DF90CF90BF90AF90089587B38E6087BBD8
S11301C088B3817F88BB08958FB5816A8FBD8EB552
S11301D08A608EBD85E090E09BBD8ABD99BD88BDD7
S11301E0089585B58A6685BD8AE083BD0895E5DFF7
S11301F0EBDFF7DF60EA76E881E090E00DD02BDFFB
S11302008FE39FE10197F1F700C0000044E060E054
S113021080E690E081DFFFCFCF92DF92EF92FF92F2
S1130220CF936B017C01A1B1A370C4E0AC27B0E013
S113023020E038E448EE51E050D0A70196012BD0DD
S1130240205120B9C6BFCF91FF90EF90DF90CF909F
S1130250089583B9089583B10895482F50E0473035
S1130260510578F4FA01ED5EFF4F099494EA0AC04F
S113027094E808C094EC06C094EB04C084E986BFFB
S113028007C094E096BF863018F406B607FEFDCF8B
S113029081B1887F0895A1E21A2EAA1BBB1BFD0120
S11302A00DC0AA1FBB1FEE1FFF1FA217B307E40751
S11302B0F50720F0A21BB30BE40BF50B661F771FA9
S11302C0881F991F1A9469F7609570958095909589
S11302D09B01AC01BD01CF01089509D0A59F900DEC
S11302E0B49F900DA49F800D911D11240895A29F89
S11302F0B001B39FC001A39F01D0B29F700D811DB7
S10D03001124911D0895F894FFCF15
S9030000FC
